:020000040800F2
:1000000000500020191E0008311C0008391C00088F
:10001000411C0008491C0008511C00080000000099
:10002000000000000000000000000000591C000853
:10003000651C000800000000711C00087D1C000801
:10004000611E0008611E0008611E0008611E000894
:10005000611E0008611E0008611E0008611E000884
:10006000611E0008611E0008611E0008611E000874
:10007000611E0008611E0008611E0008611E000864
:10008000611E0008611E0008611E0008611E000854
:10009000611E0008611E0008611E0008611E000844
:1000A000611E0008611E0008611E0008611E000834
:1000B000611E0008611E0008611E0008611E000824
:1000C000611E0008611E0008611E0008611E000814
:1000D000611E0008611E0008611E0008611E000804
:1000E000611E0008611E0008611E0008000000007B
:1000F0000000000000000000000000000000000000
:0C01000000000000000000005FF808F1A3
:10010C0010B5054C237833B9044B13B10448AFF345
:10011C0000800123237010BD0801002000000000A6
:10012C002848000808B5034B1BB103490348AFF33B
:10013C00008008BD000000000C01002028480008C9
:10014C0080B588B002AF78600B46FB701346BB706D
:10015C00FB780633FB72BB780C33BB720023FB7548
:10016C0000237B72BB783B6120E0FB78FB6016E0E0
:10017C00FB6898B23B6999B27A7A13465B001344D8
:10018C007A681A44FB7DD35C00930223022201F0AF
:10019C0094FBFB7D0133FB75FB680333FB60FB7A3F
:1001AC00FA689A42E4DD3B6903333B61BB7A3A69F6
:1001BC009A42DADD00BF00BF1837BD4680BD000093
:1001CC0080B584B000AFF860B96011461A460B4692
:1001DC00FB711346BB71FB68092B5DD801A252F869
:1001EC0023F000BF2702000819020008350200089E
:1001FC0043020008510200085F0200086D0200086B
:10020C007B0200088902000897020008BA79FB7982
:10021C0019465548FFF794FF3EE0BA79FB79194629
:10022C005248FFF78DFF37E0BA79FB7919465048F1
:10023C00FFF786FF30E0BA79FB7919464D48FFF796
:10024C007FFF29E0BA79FB7919464B48FFF778FF15
:10025C0022E0BA79FB7919464848FFF771FF1BE099
:10026C00BA79FB7919464648FFF76AFF14E0BA7968
:10027C00FB7919464348FFF763FF0DE0BA79FB7928
:10028C0019464148FFF75CFF06E0BA79FB7919463D
:10029C003E48FFF755FF00BFFB790C33FB71BB6881
:1002AC00092B5DD801A252F823F000BFEF02000821
:1002BC00E1020008FD0200080B0300081903000806
:1002CC002703000835030008430300085103000806
:1002DC005F030008BA79FB7919462348FFF730FF12
:1002EC003EE0BA79FB7919462048FFF729FF37E041
:1002FC00BA79FB7919461E48FFF722FF30E0BA792C
:10030C00FB7919461B48FFF71BFF29E0BA79FB79EB
:10031C0019461948FFF714FF22E0BA79FB79194600
:10032C001648FFF70DFF1BE0BA79FB791946144804
:10033C00FFF706FF14E0BA79FB7919461148FFF76D
:10034C00FFFE0DE0BA79FB7919460F48FFF7F8FE6E
:10035C0006E0BA79FB7919460C48FFF7F1FE00BFAD
:10036C0000BF1037BD4680BD1000002000000020EB
:10037C002000002040000020300000205000002011
:10038C006000002070000020800000209000002001
:10039C0080B485B000AF786039603B68013BFB608E
:1003AC001CE0FB6803F10043013B5B007A681A44D4
:1003BC00FB685B0079680B4412781A70FB6803F1D8
:1003CC000043013B5B007A681A44FB685B00796868
:1003DC000B4452785A70FB68013BFB60FB68002BA6
:1003EC00DFDC00BF00BF1437BD4680BC704780B453
:1003FC0087B000AFF860B9607A603B6001237B6125
:10040C001FE0FB681B781A467B6813443B617B69D1
:10041C005B00FA6813441B781A463B6993420DD172
:10042C00FB685B781A463B6813447A695200F9689A
:10043C000A445278934201D1012307E07B690133CE
:10044C007B617A69BB689A42DBDB002318461C3758
:10045C00BD4680BC7047000080B586B002AF7860A6
:10046C000023009314231A220C21332001F08FFA5D
:10047C000123009314231A220C21332001F01DFABE
:10048C007B680F4A82FB03129210DB17D31AFB60B6
:10049C007A680B4B83FB02139910D317C91A0B46BE
:1004AC009B000B445B00D31ABB600F233622B96848
:1004BC00F868FFF785FE01F061F800BFFDE700BFAB
:1004CC006766666680B5C4B002AF01F0C5FC00F08B
:1004DC003BFE00F0ADFE00F07DFE00F091FF01232D
:1004EC0000933F237C2200217C2001F0EBF80123B8
:1004FC0000933F2300220021002001F0E3F80123A8
:10050C0000933D237F223D21002001F0DBF80123E5
:10051C00009300237F220021002001F0D3F801F08A
:10052C002DF8002387F807310423C7F800319623F0
:10053C0087F8F3300023C7F8FC301FE0D7F8FC3005
:10054C00DBB21A4652001344DBB24033D9B207F582
:10055C008473A3F58073D7F8FC2003F8121007F509
:10056C008473A3F58072D7F8FC305B0013441F2210
:10057C005A70D7F8FC300133C7F8FC30D7F8FC20A0
:10058C00D7F800319A42D9DB0023C7F8F8301DE0C8
:10059C0007F58473A3F58073D7F8F82013F812309D
:1005AC00184607F58473A3F58072D7F8F8305B0012
:1005BC0013445B781946012300930223022201F0B5
:1005CC007CF9D7F8F8300133C7F8F830D7F8F820B1
:1005DC00D7F800319A42DBDB07F58473A3F20113E1
:1005EC0007221A7007F58473A3F5817304221A701D
:1005FC0007F58473A3F201131B78184607F584736F
:10060C00A3F581731B781946012300930223022260
:10061C0001F053F900F0B2FF012387F8F730002303
:10062C0087F8F630002387F8F530002387F8F4308C
:10063C0097F8F730012B40F05B8153E107F108008C
:10064C0000236FF00202D7F80011FFF7D0FE03462B
:10065C00012B05D1D7F80001FFF7FEFE00F070BDAD
:10066C0007F58473A3F580731B781A4607F584731A
:10067C00A3F201131B7803339A4243D107F5847319
:10068C00A3F580735A7807F58473A3F581731B78EF
:10069C009A4237D1D7F800310133C7F80031D7F877
:1006AC0000319A1E07F58473A3F5807313F812308A
:1006BC00D7F80021013A0333D9B207F58473A3F5B7
:1006CC00807303F81210D7F80031023BD7F80021E1
:1006DC00511E07F58472A2F580725B0013445878A2
:1006EC0007F58473A3F580724B00134402465A70CD
:1006FC00BB1DFA1D07F10800D7F8001100F0E0FD52
:10070C0000F03CFF07F58473A3F580731B78012B75
:10071C006FD1D7F800315A1E07F58473A3F5807397
:10072C0013F8123087F8D330D7F80031013B07F5B6
:10073C008472A2F580725B0013445B7887F8D23028
:10074C0097F8D33098B297F8D23099B2002300932F
:10075C000223022201F0B1F807F10803D7F80011C7
:10076C001846FFF715FE07F58473A3F580737922FD
:10077C001A7007F58473A3F580735A7807F58473A0
:10078C00A3F580735A70D7F800315A1E07F584739D
:10079C00A3F5807313F8123087F8D330D7F80031F3
:1007AC00013B07F58472A2F580725B0013445B7801
:1007BC0087F8D23007F58473A3F580731B7818463D
:1007CC0007F58473A3F580735B78194601230093B6
:1007DC000223022201F071F897F8D33098B297F8FF
:1007EC00D23099B2002300930223022201F065F863
:1007FC004EE0D7F800315A1E07F58473A3F58073C9
:10080C0013F8123087F8D530D7F80031013B07F5D3
:10081C008472A2F580725B0013445B7887F8D43045
:10082C0007F10803D7F800111846FFF7B1FD07F5DB
:10083C008473A3F580731B78033BDAB207F58473DA
:10084C00A3F580731A7007F58473A3F580731B7876
:10085C00184607F58473A3F580735B78194601235A
:10086C0000930223022201F028F897F8D53098B2B1
:10087C0097F8D43099B2002300930223022201F09E
:10088C001CF800F07BFE97F8F330184601F046FB9D
:10089C000421CC4801F0CEFD0346012B0DD10023E1
:1008AC0087F8F730002387F8F430002387F8F63008
:1008BC00012387F8F53000F043BC0821C14801F052
:1008CC00B9FD0346012B0DD1002387F8F730002327
:1008DC0087F8F530002387F8F630012387F8F430D9
:1008EC0000F02EBC97F8F730012B3FF4A7AE9FE633
:1008FC0097F8F530012B40F05E8156E107F10800C6
:10090C006FF002030022D7F80011FFF770FD0346C9
:10091C00012B05D1D7F80001FFF79EFD00F010BCAC
:10092C0007F58473A3F580735B781A4607F5847317
:10093C00A3F581731B7803339A4243D107F5847373
:10094C00A3F580731A7807F58473A3F201131B784F
:10095C009A4237D1D7F800310133C7F80031D7F8B4
:10096C000031991ED7F800315A1E07F58473A3F590
:10097C00807313F8111007F58473A3F5807303F8D3
:10098C001210D7F80031023B07F58472A2F5807281
:10099C005B0013445A78D7F80031013B0332D1B2D3
:1009AC0007F58472A2F580725B0013440A465A70F4
:1009BC00BB1DFA1D07F10800D7F8001100F080FCF0
:1009CC0000F0DCFD07F58473A3F580735B78012BD5
:1009DC006FD1D7F800315A1E07F58473A3F58073D5
:1009EC0013F8123087F8D730D7F80031013B07F5F0
:1009FC008472A2F580725B0013445B7887F8D63062
:100A0C0097F8D73098B297F8D63099B20023009364
:100A1C000223022200F051FF07F10803D7F800115E
:100A2C001846FFF7B5FC07F58473A3F580731A78A5
:100A3C0007F58473A3F580731A7007F58473A3F517
:100A4C0080733A225A70D7F800315A1E07F5847316
:100A5C00A3F5807313F8123087F8D730D7F800312C
:100A6C00013B07F58472A2F580725B0013445B783E
:100A7C0087F8D63007F58473A3F580731B78184676
:100A8C0007F58473A3F580735B78194601230093F3
:100A9C000223022200F011FF97F8D73098B297F892
:100AAC00D63099B2002300930223022200F005FFF6
:100ABC0053E0D7F800315A1E07F58473A3F5807301
:100ACC0013F81230C7F8DC30D7F80031013B07F5CA
:100ADC008472A2F580725B0013445B78C7F8D8303F
:100AEC0007F10803D7F800111846FFF751FC07F57A
:100AFC008473A3F580735B78033BDAB207F58473D8
:100B0C00A3F580735A7007F58473A3F580731B7873
:100B1C00184607F58473A3F580735B781946012397
:100B2C0000930223022200F0C8FED7F8DC3098B202
:100B3C00D7F8D83099B2002300930223022200F098
:100B4C00BCFE00F01BFD97F80731013387F8073125
:100B5C0097F8F330184601F0E1F90221194801F039
:100B6C0069FC0346012B0CD1002387F8F4300023D9
:100B7C0087F8F630002387F8F530012387F8F73033
:100B8C00DEE210210F4801F055FC0346012B0CD17D
:100B9C00002387F8F430002387F8F730002387F818
:100BAC00F530012387F8F630CAE297F8F530012BBF
:100BBC003FF4A4AE3CE597F8F430012B40F0608193
:100BCC0057E100BF0008014007F58473A3F580735B
:100BDC005B781A4607F58473A3F581731B78033B86
:100BEC009A4243D107F58473A3F580731A7807F5FD
:100BFC008473A3F201131B789A4237D1D7F80031D2
:100C0C000133C7F80031D7F80031991ED7F80031FD
:100C1C005A1E07F58473A3F5807313F8111007F5AA
:100C2C008473A3F5807303F81210D7F80031023BDC
:100C3C0007F58472A2F580725B0013445A78D7F8DA
:100C4C000031013B033AD1B207F58472A2F58072F0
:100C5C005B0013440A465A70BB1DFA1D07F10800CD
:100C6C00D7F8001100F02CFB00F088FC07F108000D
:100C7C0003230022D7F80011FFF7B9FB0346012B21
:100C8C0004D1D7F80001FFF7E7FB59E207F58473AD
:100C9C00A3F580735B783A2B6FD1D7F800315A1ECD
:100CAC0007F58473A3F5807313F8123087F8E330DB
:100CBC00D7F80031013B07F58472A2F580725B0016
:100CCC0013445B7887F8E23097F8E33098B297F8E2
:100CDC00E23099B2002300930223022200F0EDFDD2
:100CEC0007F10803D7F800111846FFF751FB07F579
:100CFC008473A3F580731A7807F58473A3F5807356
:100D0C001A7007F58473A3F5807301225A70D7F813
:100D1C0000315A1E07F58473A3F5807313F8123053
:100D2C0087F8E330D7F80031013B07F58472A2F560
:100D3C0080725B0013445B7887F8E23007F58473AC
:100D4C00A3F580731B78184607F58473A3F580739D
:100D5C005B781946012300930223022200F0ADFDBB
:100D6C0097F8E33098B297F8E23099B200230093E9
:100D7C000223022200F0A1FD53E0D7F800315A1EE5
:100D8C0007F58473A3F5807313F81230C7F8E830B5
:100D9C00D7F80031013B07F58472A2F580725B0035
:100DAC0013445B78C7F8E43007F10803D7F8001157
:100DBC001846FFF7EDFA07F58473A3F580735B789B
:100DCC000333DAB207F58473A3F580735A7007F511
:100DDC008473A3F580731B78184607F58473A3F509
:100DEC0080735B781946012300930223022200F0E2
:100DFC0064FDD7F8E83098B2D7F8E43099B2002304
:100E0C0000930223022200F058FD00F0B7FB97F884
:100E1C000731013387F8073197F8F330184601F0A2
:100E2C007DF80221C74801F005FB0346012B0CD1CC
:100E3C00002387F8F430002387F8F630002387F876
:100E4C00F530012387F8F7307AE11021BD4801F025
:100E5C00F1FA0346012B0CD1002387F8F430002360
:100E6C0087F8F730002387F8F530012387F8F63040
:100E7C0066E197F8F430012B3FF4A6AEFFF7D8BB30
:100E8C0097F8F630012B7FF4D3AB54E107F584735C
:100E9C00A3F580731B781A4607F58473A3F201132C
:100EAC001B78033B9A4243D107F58473A3F58073F7
:100EBC005A7807F58473A3F581731B789A4237D15E
:100ECC00D7F800310133C7F80031D7F800319A1E3A
:100EDC0007F58473A3F5807313F81230D7F800214B
:100EEC00013A0333D9B207F58473A3F5807303F881
:100EFC001210D7F80031023BD7F80021511E07F52C
:100F0C008472A2F580725B001344587807F58473E1
:100F1C00A3F580724B00134402465A70BB1DFA1D98
:100F2C0007F10800D7F8001100F0CAF900F026FB11
:100F3C0007F1080000230322D7F80011FFF757FA36
:100F4C000346012B04D1D7F80001FFF785FAF7E02F
:100F5C0007F58473A3F580731B78792B6FD1D7F8C1
:100F6C0000315A1E07F58473A3F5807313F8123001
:100F7C0087F8F030D7F80031013B07F58472A2F501
:100F8C0080725B0013445B7887F8EF3097F8F03091
:100F9C0098B297F8EF3099B2002300930223022203
:100FAC0000F08BFC07F10803D7F800111846FFF787
:100FBC00EFF907F58473A3F5807301221A7007F516
:100FCC008473A3F580735A7807F58473A3F5807343
:100FDC005A70D7F800315A1E07F58473A3F5807345
:100FEC0013F8123087F8F030D7F80031013B07F5D1
:100FFC008472A2F580725B0013445B7887F8EF3043
:10100C0007F58473A3F580731B78184607F5847372
:10101C00A3F580735B781946012300930223022207
:10102C0000F04BFC97F8F03098B297F8EF3099B28B
:10103C00002300930223022200F03FFC53E0D7F878
:10104C0000315A1E07F58473A3F5807313F8123020
:10105C0087F8F230D7F80031013B07F58472A2F51E
:10106C0080725B0013445B7887F8F13007F108035A
:10107C00D7F800111846FFF78BF907F58473A3F521
:10108C0080731B780333DAB207F58473A3F580738E
:10109C001A7007F58473A3F580731B78184607F54F
:1010AC008473A3F580735B781946012300930223A4
:1010BC00022200F002FC97F8F23098B297F8F13067
:1010CC0099B2002300930223022200F0F6FB00F0F9
:1010DC0055FA97F80731013387F8073197F8F33051
:1010EC00184600F01BFF0421164801F0A3F9034633
:1010FC00012B0CD1002387F8F730002387F8F4304C
:10110C00002387F8F630012387F8F53018E0082122
:10111C000C4801F08FF90346012B0CD1002387F802
:10112C00F730002387F8F530002387F8F6300123D9
:10113C0087F8F43004E097F8F630012B3FF4A6AEB4
:10114C00FFF776BA0008014080B590B000AF07F108
:10115C00180328220021184602F0BBFC3B1D00227C
:10116C001A605A609A60DA601A610123BB614FF40D
:10117C008033FB6100233B620123BB6202237B6350
:10118C004FF48033BB634FF4E013FB6307F1180398
:10119C00184601F031FF0346002B01D000F08AF80D
:1011AC000F237B600223BB600023FB604FF4806342
:1011BC003B6100237B613B1D0221184602F09EF926
:1011CC000346002B01D000F075F800BF4037BD4638
:1011DC0080BD000080B500AF124B134A1A60114B52
:1011EC00124A5A600F4B00229A600E4B0022DA60B2
:1011FC000C4B4FF480421A610A4B00225A61094B86
:10120C0000229A61074B0022DA61064B00221A6217
:10121C00044801F027F90346002B01D000F04AF8EE
:10122C0000BF80BD2401002000540040801A06003D
:10123C0080B588B000AF07F1100300221A605A6025
:10124C009A60DA60194B9B69184A43F0200393614A
:10125C00164B9B6903F02003FB60FB68134B9B69E7
:10126C00124A43F004039361104B9B6903F004038F
:10127C00BB60BB680D4B9B690C4A43F00803936140
:10128C000A4B9B6903F008037B607B6801233B617D
:10129C0000237B610123BB6107F11003194604484D
:1012AC0000F044FF00BF2037BD4680BD0010024057
:1012BC000008014080B400AF72B600BF00BFFDE76C
:1012CC0090B589B002AFF860B9607A603B6000F00D
:1012DC001BFE044600F018FE03462344184602F099
:1012EC0087FA02F0B3FA0346414A82FB03129110CB
:1012FC00DA178A1A162101FB02F29A1A1346FB75A9
:10130C0002F0A4FA02463B4B83FB0213D910D3170D
:10131C00C91A0B461B010B44D11A0B46BB75012392
:10132C007B7500233B6100233B6137E0FB7D324A38
:10133C00D25C3B695B00F9680B441B789A422AD15A
:10134C00BB7D2E4AD25C3B695B00F9680B445B7831
:10135C009A4220D100237B7502F078FA0246254B85
:10136C0083FB0213D910D317C91A0B461B010B446C
:10137C00D11A0B46FB7502F069FA02461D4B83FB32
:10138C000213D910D317C91A0B461B010B44D11ADF
:10139C000B46BB7506E03B6901333B613A69BB68A0
:1013AC009A42C3DB3A69BB689A4203D07B7D012B1E
:1013BC0002D0B6E700BF00E000BFFB7D0E4AD25C56
:1013CC007B681A70BB7D0D4AD25C3B681A707B68D7
:1013DC001B7818463B681B7819460123009302239F
:1013EC00022200F06AFA00BF1C37BD4690BD00BF58
:1013FC00E9A28B2E79787878404800085848000884
:10140C0080B582B000AF00F00FFB44F620630122E0
:10141C007821584801F068FA0346002B01D00023CC
:10142C00A4E040F6C4137B6002E07B68013B7B6068
:10143C007B68002BF9D1AE220021782000F064FBF0
:10144C0020220021782000F05FFB10220021782060
:10145C0000F05AFBB0220021782000F055FBC82286
:10146C000021782000F050FB00220021782000F0B1
:10147C004BFB10220021782000F046FB402200217B
:10148C00782000F041FB81220021782000F03CFB09
:10149C00FF220021782000F037FBA12200217820C8
:1014AC0000F032FBA6220021782000F02DFBA822B0
:1014BC000021782000F028FB3F220021782000F04A
:1014CC0023FBA4220021782000F01EFBD322002154
:1014DC00782000F019FB00220021782000F014FB8A
:1014EC00D5220021782000F00FFBF022002178207B
:1014FC0000F00AFBD9220021782000F005FB222203
:10150C000021782000F000FBDA220021782000F086
:10151C00FBFA12220021782000F0F6FADB220021DF
:10152C00782000F0F1FA20220021782000F0ECFA6B
:10153C008D220021782000F0E7FA14220021782077
:10154C0000F0E2FAAF220021782000F0DDFA002052
:10155C0000F042F800F012F8074B00221A80064BFC
:10156C0000225A80044B01225A7101231846083775
:10157C00BD4680BD240100207805002080B582B0D6
:10158C0000AF0023FB711DE0FB79503BDBB21A4628
:10159C000021782000F0B8FA00220021782000F019
:1015AC00B3FA10220021782000F0AEFAFB79DB01AF
:1015BC00084A1A4480234021782000F049FAFB792C
:1015CC000133FB71FB79072BDED900BF00BF083755
:1015DC00BD4680BD7801002080B582B000AF0346C7
:1015EC00FB71FB79002B01D1002300E0FF234FF4AA
:1015FC0080621946034802F06CFA00BF0837BD46FA
:10160C0080BD00BF7801002080B483B000AF0346DA
:10161C00FB800B46BB801346FB70FB887F2B48D8A6
:10162C00BB883F2B45D8254B1B79002B06D0FB786C
:10163C00002B0CBF01230023DBB2FB70FB78012BCA
:10164C001AD1FA88BB88DB0898B20346DB01134435
:10165C001B4AD35C5AB2BB8803F00703012101FA81
:10166C0003F35BB2134359B2FA880346DB0113440C
:10167C00C9B2134AD1541DE0FA88BB88DB0898B272
:10168C000346DB0113440E4AD35C5AB2BB8803F009
:10169C000703012101FA03F35BB2DB435BB2134096
:1016AC0059B2FA880346DB011344C9B2044AD15437
:1016BC0000E000BF0C37BD4680BC704778050020A9
:1016CC007801002090B587B000AF0446084611465B
:1016DC001A462346FB800346BB800B467B80134691
:1016EC003B80FB887F2B01D97F23FB807B887F2B62
:1016FC0001D97F237B80BB883F2B01D93F23BB8043
:10170C003B883F2B01D93F233B80FA887B889A4248
:10171C0005D27A88FB88D31A9BB21BB204E0FA88F4
:10172C007B88D31A9BB21BB27B82BA883B889A42C5
:10173C0005D23A88BB88D31A9BB21BB204E0BA8894
:10174C003B88D31A9BB21BB23B82FA887B889A42A5
:10175C0001D2012301E04FF0FF33FB81BA883B88B3
:10176C009A4201D2012301E04FF0FF33BB81B7F95C
:10177C001220B7F910309A4206DDB7F91230DA0FA1
:10178C0013445B101BB206E0B7F91030DA0F1344A8
:10179C005B105B421BB2FB82B7F91230002B29D1D4
:1017AC003A88BB889A4205D23B883B81BB883B80F8
:1017BC003B89BB807A88FB889A4205D27B883B8127
:1017CC00FB887B803B89FB80BB88BB820CE0B98AA1
:1017DC0097F82820FB881846FFF716FFB7F9143046
:1017EC009BB201339BB2BB82B7F914203B889A425F
:1017FC00EDDD5FE0B7F91030002B29D13A88BB88BA
:10180C009A4205D23B883B81BB883B803B89BB809D
:10181C007A88FB889A4205D27B883B81FB887B8047
:10182C003B89FB80FB88BB820CE0BB8A97F82820A5
:10183C00B9881846FFF7E8FEB7F914309BB20133AC
:10184C009BB2BB82B7F914207B889A42EDDD31E064
:10185C0097F82820B988FB881846FFF7D5FEFA8838
:10186C007B889A4203D1BA883B889A4221D0FB8A62
:10187C007B81B7F90A20B7F912305B429A4208DD36
:10188C00FA8A3B8AD31A9BB2FB82FA89FB881344EF
:10189C00FB80B7F90A20B7F910309A42D8DAFA8AE5
:1018AC007B8A13449BB2FB82BA89BB881344BB80EE
:1018BC00CEE700BF1C37BD4690BD90B585B002AFDA
:1018CC000446084611461A462346FB800346BB8055
:1018DC000B467B8013463B80FB887F2B53D8BB8801
:1018EC003F2B50D8FA887B8813447F2B03DDFB8871
:1018FC00C3F180037B80BA883B8813443F2B03DD04
:10190C00BB88C3F140033B80FA887B8813449AB2AE
:10191C00BC88B988F8883B7E00932346FFF7D2FE3B
:10192C00BA883B88134499B2FA887B8813449CB2DA
:10193C00BA883B8813449AB2F8883B7E00931346CE
:10194C002246FFF7BFFEBA883B8813449CB2FA8844
:10195C00B988F8883B7E00932346FFF7B3FEFA88DC
:10196C007B88134498B2FA887B8813449CB2BA885B
:10197C003B8813449AB2B9883B7E009313462246A7
:10198C00FFF7A0FE00E000BF0C37BD4690BD90B540
:10199C0087B002AF0446084611461A462346FB8020
:1019AC000346BB800B467B8013463B80FB887F2B1A
:1019BC0036D8BB883F2B33D8FA887B8813447F2BCF
:1019CC0003DDFB88C3F180037B80BA883B8813441A
:1019DC003F2B03DDBB88C3F140033B800023FB732B
:1019EC0018E0FB7B9AB2BB88134499B2FA887B88C7
:1019FC0013449CB2FB7B9AB2BB8813449AB2F8880E
:101A0C0097F82030009313462246FFF75BFEFB7BD2
:101A1C000133FB73FB7B9BB23A889A42E1D200E024
:101A2C0000BF1437BD4690BD80B483B000AF074BE8
:101A3C007B6002E07B68013B7B607B68002BF9D10B
:101A4C0000BF00BF0C37BD4680BC704790D0030070
:101A5C002DE9F04389B002AF3A601A460346FB7198
:101A6C000B46BB711346BB806B461E46BB88591C8C
:101A7C004B1E3B610A460023904699464FF00002EC
:101A8C004FF000034FEAC90343EA58734FEAC80208
:101A9C000A46002314461D464FF000024FF0000387
:101AAC00EB0043EA5473E2000B460733DB08DB0020
:101ABC00ADEB030D02AB0033FB60FB68BA791A7017
:101ACC000123FB750AE0FB7D013B3A681A44FB7D60
:101ADC001178FA68D154FB7D0133FB75FB7D9BB209
:101AEC00BA889A42EFD2FB7999B2BB880A2200924B
:101AFC00FA68044800F0FAFDB54600BF1C37BD4635
:101B0C00BDE8F0832401002080B586B002AF034607
:101B1C00FB710B46BB7113467B71BB793B737B79B5
:101B2C007B73FB7999B207F10C020A230093022311
:101B3C00034800F0DBFD00BF1037BD4680BD00BF81
:101B4C002401002080B485B000AF154B9B69144A6A
:101B5C0043F001039361124B9B6903F00103BB60DB
:101B6C00BB680F4BDB690E4A43F08053D3610C4BBF
:101B7C00DB6903F080537B607B680A4B5B68FB601E
:101B8C00FB6823F0E063FB60FB6843F00073FB60D1
:101B9C00044AFB68536000BF1437BD4680BC7047D5
:101BAC00001002400000014080B588B000AF7860A2
:101BBC0007F1100300221A605A609A60DA607B68A1
:101BCC001B68154A934223D1144B9B69134A43F06B
:101BDC0008039361114B9B6903F00803FB60FB68DE
:101BEC00C0233B6112237B610323FB6107F11003CC
:101BFC0019460B4800F09AFA084BDB69074A43F484
:101C0C000013D361054BDB6903F40013BB60BB68A5
:101C1C0000BF2037BD4680BD00540040001002407C
:101C2C00000C014080B400AF00BFFDE780B400AFF2
:101C3C0000BFFDE780B400AF00BFFDE780B400AF8C
:101C4C0000BFFDE780B400AF00BFFDE780B400AF7C
:101C5C0000BFBD4680BC704780B400AF00BFBD461E
:101C6C0080BC704780B400AF00BFBD4680BC7047DD
:101C7C0080B500AF00F036F900BF80BD80B400AF76
:101C8C0001231846BD4680BC704780B582B000AFBA
:101C9C007860396001F06CFF034616221A604FF031
:101CAC00FF3318460837BD4680BD80B582B000AF03
:101CBC0078604FF0FF317868FFF7E7FF00BFFDE772
:101CCC0080B586B000AFF860B9607A6000237B61A4
:101CDC000AE0AFF300800146BB685A1CBA60CAB276
:101CEC001A707B6901337B617A697B689A42F0DBFD
:101CFC007B6818461837BD4680BD80B586B000AFEE
:101D0C00F860B9607A6000237B6109E0BB685A1CFB
:101D1C00BA601B781846AFF300807B6901337B6196
:101D2C007A697B689A42F1DB7B6818461837BD46A6
:101D3C0080BD80B483B000AF78604FF0FF3318469D
:101D4C000C37BD4680BC704780B483B000AF786060
:101D5C0039603B684FF400525A60002318460C3728
:101D6C00BD4680BC704780B483B000AF786001235F
:101D7C0018460C37BD4680BC704780B485B000AFA8
:101D8C00F860B9607A60002318461437BD4680BCF1
:101D9C007047000080B586B000AF7860144A154BD0
:101DAC00D31A7B617B693B61134B1B68002B02D1FF
:101DBC00114B124A1A60104B1A687B6813443A692B
:101DCC009A4207D201F0D4FE03460C221A604FF05F
:101DDC00FF3309E0084B1B68FB60074B1A687B68F4
:101DEC001344054A1360FB6818461837BD4680BD7E
:101DFC00005000200004000080050020D8060020C0
:101E0C0080B400AF00BFBD4680BC7047FFF7F8FF41
:101E1C000B480C490C4A002302E0D458C45004333C
:101E2C00C4188C42F9D3094A094C002301E0136011
:101E3C000432A242FBD301F0A1FEFEF743FB704734
:101E4C0000000020080100207C4900080801002047
:101E5C00D4060020FEE7000080B500AF084B1B68DD
:101E6C00074A43F010031360032000F02BF90F20F6
:101E7C0000F008F8FFF766FE0023184680BD00BF8F
:101E8C000020024080B582B000AF7860124B1A6817
:101E9C00124B1B7819464FF47A73B3FBF1F3B2FB78
:101EAC00F3F3184600F035F90346002B01D001235B
:101EBC000EE07B680F2B0AD8002279684FF0FF30B8
:101ECC0000F00BF9064A7B681360002300E0012345
:101EDC0018460837BD4680BDA0000020A800002091
:101EEC00A400002080B400AF054B1B781A46054BAC
:101EFC001B681344034A136000BFBD4680BC704787
:101F0C00A80000208405002080B400AF024B1B68A1
:101F1C001846BD4680BC70478405002080B584B04F
:101F2C0000AF7860FFF7F0FFB8607B68FB60FB6880
:101F3C00B3F1FF3F05D00A4B1B781A46FB681344DC
:101F4C00FB6000BFFFF7E0FF0246BB68D31AFA68DC
:101F5C009A42F7D800BF00BF1037BD4680BD00BF06
:101F6C00A800002080B485B000AF78607B6803F0D7
:101F7C000703FB600C4BDB68BB60BA684FF6FF03D2
:101F8C001340BB60FB681A02BB68134343F0BF638A
:101F9C0043F40033BB60044ABB68D36000BF143702
:101FAC00BD4680BC704700BF00ED00E080B400AFC0
:101FBC00044BDB681B0A03F007031846BD4680BCC4
:101FCC00704700BF00ED00E080B483B000AF034663
:101FDC003960FB7197F90730002B0ADB3B68DAB2EA
:101FEC000C4997F907301201D2B20B4483F8002345
:101FFC000AE03B68DAB20849FB7903F00F03043BB3
:10200C001201D2B20B441A7600BF0C37BD4680BC0D
:10201C00704700BF00E100E000ED00E080B489B043
:10202C0000AFF860B9607A60FB6803F00703FB61EE
:10203C00FB69C3F10703042B28BF0423BB61FB69B5
:10204C000433062B02D9FB69033B00E000237B61C0
:10205C004FF0FF32BB6902FA03F3DA43BB681A4054
:10206C007B699A404FF0FF317B6901FA03F3D94346
:10207C007B680B40134318462437BD4680BC704721
:10208C0080B582B000AF78607B68013BB3F1807F94
:10209C0001D301230FE00A4A7B68013B53600F21F7
:1020AC004FF0FF30FFF790FF054B00229A60044B76
:1020BC0007221A60002318460837BD4680BD00BFB2
:1020CC0010E000E080B582B000AF78607868FFF770
:1020DC0049FF00BF0837BD4680BD80B586B000AF54
:1020EC000346B9607A60FB7300237B61FFF75EFFE8
:1020FC0078617A68B9687869FFF790FF024697F9BA
:10210C000F3011461846FFF75FFF00BF1837BD466A
:10211C0080BD80B582B000AF78607868FFF7B0FF03
:10212C00034618460837BD4680BD000080B48BB00E
:10213C0000AF7860396000237B6200233B6269E169
:10214C0001227B6A02FA03F3FB613B681B68FA69A4
:10215C001340BB61BA69FB699A4240F058813B68F5
:10216C005B689A4A93425ED0984A934275D8984AD3
:10217C00934258D0964A93426FD8964A934252D083
:10218C00944A934269D8944A93424CD0924A9342CF
:10219C0063D8924A934246D0904A93425DD8122B10
:1021AC002AD8122B59D801A252F823F03322000856
:1021BC000D2200081F220008612200086722000877
:1021CC0067220008672200086722000867220008BF
:1021DC0067220008672200086722000867220008AF
:1021EC00672200086722000867220008672200089F
:1021FC001522000829220008794A934213D02CE0BA
:10220C003B68DB683B6229E03B68DB6804333B627C
:10221C0024E03B68DB6808333B621FE03B68DB680B
:10222C000C333B621AE03B689B68002B02D1042301
:10223C003B6213E03B689B68012B05D108233B6292
:10224C007B68FA691A6109E008233B627B68FA69CA
:10225C005A6103E000233B6200E000BFBB69FF2B27
:10226C0001D87B6801E07B6804337B61BB69FF2B81
:10227C0002D87B6A9B0002E07B6A083B9B003B61B7
:10228C007B691A680F213B6901FA03F3DB431A409F
:10229C00396A3B6901FA03F31A437B691A603B689C
:1022AC005B6803F08053002B00F0B1804D4B9B69B1
:1022BC004C4A43F0010393614A4B9B6903F00103C1
:1022CC00BB60BB68484A7B6A9B08023352F82330D8
:1022DC00FB607B6A03F003039B000F2202FA03F3FB
:1022EC00DB43FA681340FB607B68404A934213D08F
:1022FC007B683F4A93420DD07B683E4A934207D09D
:10230C007B683D4A934201D1032306E0042304E099
:10231C00022302E0012300E000237A6A02F00302A8
:10232C0092009340FA681343FB602F497B6A9B0829
:10233C000233FA6841F823203B685B6803F480138E
:10234C00002B06D02D4B9A682C49BB6913438B602C
:10235C0006E02A4B9A68BB69DB43284913408B6023
:10236C003B685B6803F40013002B06D0234BDA6840
:10237C002249BB691343CB6006E0204BDA68BB698A
:10238C00DB431E491340CB603B685B6803F40033AE
:10239C00002B06D0194B5A681849BB6913434B6084
:1023AC0006E0164B5A68BB69DB43144913404B607B
:1023BC003B685B6803F48033002B21D00F4B1A6809
:1023CC000E49BB6913430B6021E000BF00003210C3
:1023DC00000031100000221000002110000012102B
:1023EC0000001110001002400000014000080140E4
:1023FC00000C014000100140001401400004014099
:10240C000B4B1A68BB69DB43094913400B607B6AB1
:10241C0001337B623B681A687B6A22FA03F3002B58
:10242C007FF48EAE00BF00BF2C37BD4680BC70471A
:10243C000004014080B485B000AF78600B467B800F
:10244C007B689A687B881340002B02D00123FB73B6
:10245C0001E00023FB73FB7B18461437BD4680BCA0
:10246C007047000080B584B000AF78607B68002BAB
:10247C0001D101232BE17B6893F83D30DBB2002BBB
:10248C0006D17B68002283F83C207868FFF78CFB30
:10249C007B68242283F83D207B681B681A687B6864
:1024AC001B6822F001021A607B681B681A687B6843
:1024BC001B6842F400421A607B681B681A687B68D0
:1024CC001B6822F400421A6001F060F9F8607B6826
:1024DC005B68814A934207D8FB68804A934294BF59
:1024EC0001230023DBB206E0FB687D4A934294BFD4
:1024FC0001230023DBB2002B01D00123E7E0FB68B2
:10250C00784AA2FB03239B0CBB607B681B685B684F
:10251C0023F03F017B681B68BA680A435A607B68EA
:10252C001B681B6A23F03F017B685B686A4A934215
:10253C0002D8BB68013309E0BB684FF4967202FB0A
:10254C0003F3694AA2FB03239B0901337A681268DF
:10255C000B4313627B681B68DB6923F44F4222F048
:10256C00FF027B685B685C498B4219D8FB68591E7B
:10257C007B685B685B00B1FBF3F3591C40F6FC73A2
:10258C000B40002B0AD0FB68591E7B685B685B0014
:10259C00B1FBF3F30133C3F30B0351E004234FE01E
:1025AC007B689B68002B11D1FB68581E7B685968AF
:1025BC000B465B000B44B0FBF3F30133C3F30B038B
:1025CC00002B0CBF01230023DBB212E0FB68581E6A
:1025DC007B6859680B469B000B4499000B44B0FB7D
:1025EC00F3F30133C3F30B03002B0CBF01230023C4
:1025FC00DBB2002B01D0012322E07B689B68002B0F
:10260C000ED1FB68581E7B6859680B465B000B4467
:10261C00B0FBF3F30133C3F30B0343F400430FE0BC
:10262C00FB68581E7B6859680B469B000B4499004D
:10263C000B44B0FBF3F30133C3F30B0343F44043FC
:10264C00796809681343CB617B681B681B6823F0AE
:10265C00C0017B68DA697B681B6A1A437B681B685C
:10266C000A431A607B681B689B6823F4034323F0BE
:10267C00FF037A6811697A68D26811437A68126824
:10268C000B4393607B681B68DB6823F0FF017B685E
:10269C005A697B689B691A437B681B680A43DA603A
:1026AC007B681B681A687B681B6842F001021A6021
:1026BC007B6800221A647B68202283F83D207B68AB
:1026CC0000221A637B68002283F83E200023184600
:1026DC001037BD4680BD00BFA08601007F841E0060
:1026EC00FF083D0083DE1B43D34D621080B588B0DC
:1026FC0002AFF8607A601A460B467B8113463B8129
:10270C00FFF702FC7861FB6893F83D30DBB2202BBD
:10271C0040F0E0807B690093192301227049F8682E
:10272C0000F092FA0346002B01D00223D3E0FB68A1
:10273C0093F83C30012B01D10223CCE0FB68012241
:10274C0083F83C20FB681B681B6803F00103012B1A
:10275C0007D0FB681B681A68FB681B6842F0010213
:10276C001A60FB681B681A68FB681B6822F400621D
:10277C001A60FB68212283F83D20FB68102283F845
:10278C003E20FB6800221A64FB687A685A62FB6878
:10279C003A895A85FB685B8D9AB2FB681A85FB688F
:1027AC00504ADA6279897B693A6AF86800F0CAF9AA
:1027BC000346002B01D001238DE000233B61FB6815
:1027CC001B685B693B61FB681B689B693B613B69F0
:1027DC0066E07A69396AF86800F050FB0346002B12
:1027EC000DD0FB681B6C042B07D1FB681B681A68A7
:1027FC00FB681B6842F400721A6001236BE0FB68F3
:10280C005B6A1A78FB681B681A61FB685B6A5A1C66
:10281C00FB685A62FB685B8D9BB2013B9AB2FB680A
:10282C005A85FB681B8D013B9AB2FB681A85FB68C5
:10283C001B685B6903F00403042B1BD1FB681B8D25
:10284C00002B17D0FB685B6A1A78FB681B681A614F
:10285C00FB685B6A5A1CFB685A62FB685B8D9BB217
:10286C00013B9AB2FB685A85FB681B8D013B9AB2FF
:10287C00FB681A857A69396AF86800F047FB0346E9
:10288C00002B0DD0FB681B6C042B07D1FB681B685D
:10289C001A68FB681B6842F400721A6001231AE084
:1028AC00FB681B8D002B94D1FB681B681A68FB68B6
:1028BC001B6842F400721A60FB68202283F83D20EA
:1028CC00FB68002283F83E20FB68002283F83C2042
:1028DC00002300E0022318461837BD4680BD00BF18
:1028EC00020010000000FFFF80B58AB002AFF86054
:1028FC007A603B600B467B81FFF706FBF861002397
:10290C00BB61FB6893F83D30DBB2202B40F01181AA
:10291C00FB690093192301228849F86800F094F9A7
:10292C000346002B01D0022304E1FB6893F83C30F2
:10293C00012B01D10223FDE0FB68012283F83C202E
:10294C00FB681B681B6803F00103012B07D0FB68B5
:10295C001B681A68FB681B6842F001021A60FB686E
:10296C001B681A68FB681B6822F400621A60FB681B
:10297C00242283F83D20FB6800221A64FB68704A0D
:10298C00DA62FB681B681A68FB681B6842F4807289
:10299C001A60FB6900933B6800224FF00111F86844
:1029AC0000F052F90346002B0DD0FB681B681B6826
:1029BC0003F48073B3F5807F03D1FB684FF400728E
:1029CC001A640323B6E07B89DBB21A46FB681B68EA
:1029DC0002F0FE021A61FFF797FAF861FB681B68B8
:1029EC005B6903F00203022B0CBF01230023DBB253
:1029FC00FB75FB681B685B6903F48063B3F5806F40
:102A0C000CBF01230023DBB2BB7525E0FFF77CFA7A
:102A1C000246FB69D31A3A689A4202D33B68002BF0
:102A2C0003D1FB68A02283F83D20FB681B685B691F
:102A3C0003F00203022B0CBF01230023DBB2FB7556
:102A4C00FB681B685B6903F48063B3F5806F0CBF94
:102A5C0001230023DBB2BB75FB6893F83D30DBB27E
:102A6C00A02B05D0FB7D002B02D1BB7D002BCDD044
:102A7C00FB68202283F83D20FB681B685B6903F030
:102A8C000203022B29D1FB681B681A68FB681B68C0
:102A9C0042F400721A6000233B61FB681B685B699F
:102AAC003B61FB681B689B693B613B69FB6900935D
:102ABC00192301222149F86800F0C6F80346002BBF
:102ACC0001D0012336E0FB68202283F83D20FB680F
:102ADC00002283F83C2000232CE0FB681B681A685A
:102AEC00FB681B6842F400721A60FB681B686FF489
:102AFC0080625A61FB690093192301220F49F8681F
:102B0C0000F0A2F80346002B01D0012312E0BB69B0
:102B1C000133BB61BA697B689A42FFF432AFFB6840
:102B2C00202283F83D20FB68002283F83C200123FF
:102B3C0000E0022318462037BD4680BD020010007D
:102B4C000000FFFF80B588B002AFF8607A603B6090
:102B5C000B467B81FB68DB6A7B617B69082B06D0AB
:102B6C007B69012B03D07B6913F5803F08D1FB688F
:102B7C001B681A68FB681B6842F480721A600BE0D1
:102B8C00FB681B6B122B07D1FB681B681A68FB6870
:102B9C001B6842F480721A603B6800937B680022C9
:102BAC004FF00111F86800F04FF80346002B0DD0E0
:102BBC00FB681B681B6803F48073B3F5807F03D13B
:102BCC00FB684FF400721A64032335E0FB681B6941
:102BDC00B3F5804F08D17B89DBB21A46FB681B68C2
:102BEC0002F0FE021A611BE07B89DB11DBB203F001
:102BFC000603DBB263F00F03DAB2FB681B681A61E1
:102C0C003B687A680E49F86800F098F80346002B88
:102C1C0001D0012310E07B89DAB2FB681B681A61D2
:102C2C003B687A680749F86800F088F80346002B7F
:102C3C0001D0012300E0002318461837BD4680BDA3
:102C4C00080001000200010080B584B000AFF860FC
:102C5C00B9603B601346FB7148E03B68B3F1FF3F42
:102C6C0044D0FFF751F90246BB69D31A3A689A422D
:102C7C0002D33B68002B39D1BB681B0CDBB2012B98
:102C8C000DD1FB681B685B69DA43BB6813409BB2D0
:102C9C00002B0CBF01230023DBB21A460CE0FB68AF
:102CAC001B689B69DA43BB6813409BB2002B0CBFBB
:102CBC0001230023DBB21A46FB799A4216D1FB683A
:102CCC0000221A63FB68202283F83D20FB68002257
:102CDC0083F83E20FB681B6C43F02002FB681A64EF
:102CEC00FB68002283F83C20012323E0BB681B0C0B
:102CFC00DBB2012B0DD1FB681B685B69DA43BB6847
:102D0C0013409BB2002B0CBF01230023DBB21A46ED
:102D1C000CE0FB681B689B69DA43BB6813409BB2F1
:102D2C00002B0CBF01230023DBB21A46FB799A421D
:102D3C0093D0002318461037BD4680BD80B584B0B3
:102D4C0000AFF860B9607A603B6071E0FB681B68AB
:102D5C005B6903F48063B3F5806F23D1FB681B6858
:102D6C001A68FB681B6842F400721A60FB681B68E7
:102D7C006FF480625A61FB6800221A63FB682022A0
:102D8C0083F83D20FB68002283F83E20FB681B6C17
:102D9C0043F00402FB681A64FB68002283F83C20B1
:102DAC00012367E07B68B3F1FF3F41D0FFF7ACF83C
:102DBC0002463B68D31A7A689A4202D37B68002B8E
:102DCC0036D1BB681B0CDBB2012B0CD1FB681B682A
:102DDC005B69DA43BB6813409BB2002B14BF012321
:102DEC000023DBB20BE0FB681B689B69DA43BB6812
:102DFC0013409BB2002B14BF01230023DBB2002B2A
:102E0C0016D0FB6800221A63FB68202283F83D2051
:102E1C00FB68002283F83E20FB681B6C43F0200209
:102E2C00FB681A64FB68002283F83C20012321E034
:102E3C00BB681B0CDBB2012B0CD1FB681B685B69FC
:102E4C00DA43BB6813409BB2002B14BF0123002351
:102E5C00DBB20BE0FB681B689B69DA43BB68134071
:102E6C009BB2002B14BF01230023DBB2002B7FF499
:102E7C006DAF002318461037BD4680BD80B584B0B9
:102E8C0000AFF860B9607A6034E0F86800F086F85A
:102E9C000346002B01D0012334E0BB68B3F1FF3FA4
:102EAC0028D0FFF731F802467B68D31ABA689A42E9
:102EBC0002D3BB68002B1DD1FB681B685B6903F058
:102ECC008003802B16D0FB6800221A63FB6820223B
:102EDC0083F83D20FB68002283F83E20FB681B6CC6
:102EEC0043F02002FB681A64FB68002283F83C2044
:102EFC00012307E0FB681B685B6903F08003802BF0
:102F0C00C3D1002318461037BD4680BD80B584B0B0
:102F1C0000AFF860B9607A6034E0F86800F03EF811
:102F2C000346002B01D0012334E0BB68B3F1FF3F13
:102F3C0028D0FEF7E9FF02467B68D31ABA689A429A
:102F4C0002D3BB68002B1DD1FB681B685B6903F0C7
:102F5C000403042B16D0FB6800221A63FB682022A2
:102F6C0083F83D20FB68002283F83E20FB681B6C35
:102F7C0043F02002FB681A64FB68002283F83C20B3
:102F8C00012307E0FB681B685B6903F00403042B57
:102F9C00C3D1002318461037BD4680BD80B483B022
:102FAC0000AF78607B681B685B6903F48063B3F5E2
:102FBC00806F1BD17B681B686FF480625A617B68E1
:102FCC0000221A637B68202283F83D207B68002254
:102FDC0083F83E207B681B6C43F004027B681A6408
:102FEC007B68002283F83C20012300E00023184674
:102FFC000C37BD4680BC704780B586B000AF78609A
:10300C007B68002B01D1012372E27B681B6803F003
:10301C000103002B00F08780924B5B6803F00C03DC
:10302C00042B0CD08F4B5B6803F00C03082B12D1D4
:10303C008C4B5B6803F48033B3F5803F0BD1894B29
:10304C001B6803F40033002B6CD07B685B68002B8F
:10305C0068D101234CE27B685B68B3F5803F06D1F5
:10306C00804B1B687F4A43F4803313602EE07B68EF
:10307C005B68002B0CD17B4B1B687A4A23F48033A2
:10308C001360784B1B68774A23F4802313601DE090
:10309C007B685B68B3F5A02F0CD1724B1B68714A2F
:1030AC0043F4802313606F4B1B686E4A43F48033E8
:1030BC0013600BE06B4B1B686A4A23F4803313607C
:1030CC00684B1B68674A23F4802313607B685B683A
:1030DC00002B13D0FEF718FF386108E0FEF714FF41
:1030EC0002463B69D31A642B01D9032300E25D4BE2
:1030FC001B6803F40033002BF0D014E0FEF704FF40
:10310C00386108E0FEF700FF02463B69D31A642BD6
:10311C0001D90323ECE1534B1B6803F40033002B60
:10312C00F0D100E000BF7B681B6803F00203002BAA
:10313C0063D04C4B5B6803F00C03002B0BD0494B5A
:10314C005B6803F00C03082B1CD1464B5B6803F443
:10315C008033002B16D1434B1B6803F00203002B6A
:10316C0005D07B681B69012B01D00123C0E13D4BCD
:10317C001B6823F0F8027B685B69DB003949134359
:10318C000B603AE07B681B69002B20D0364B012288
:10319C001A60FEF7B9FE386108E0FEF7B5FE02468C
:1031AC003B69D31A022B01D90323A1E12D4B1B68D8
:1031BC0003F00203002BF0D02A4B1B6823F0F8021B
:1031CC007B685B69DB00274913430B6015E0264BDA
:1031DC0000221A60FEF798FE386108E0FEF794FEB4
:1031EC0002463B69D31A022B01D9032380E11D4B04
:1031FC001B6803F00203002BF0D17B681B6803F003
:10320C000803002B3AD07B689B69002B19D0174B15
:10321C0001221A60FEF778FE386108E0FEF774FEB2
:10322C0002463B69D31A022B01D9032360E10D4BF3
:10323C005B6A03F00203002BF0D0012000F0BAFA15
:10324C001CE00A4B00221A60FEF75EFE38610FE0AC
:10325C00FEF75AFE02463B69D31A022B08D9032308
:10326C0046E100BF0010024000004242800442428E
:10327C00924B5B6A03F00203002BE9D17B681B685D
:10328C0003F00403002B00F0A6800023FB758B4B8E
:10329C00DB6903F08053002B0DD1884BDB69874A27
:1032AC0043F08053D361854BDB6903F08053BB60E3
:1032BC00BB680123FB75824B1B6803F48073002BE6
:1032CC0018D17F4B1B687E4A43F480731360FEF762
:1032DC001BFE386108E0FEF717FE02463B69D31A65
:1032EC00642B01D9032303E1754B1B6803F4807332
:1032FC00002BF0D07B68DB68012B06D16F4B1B6A6F
:10330C006E4A43F0010313622DE07B68DB68002BEF
:10331C000CD16A4B1B6A694A23F001031362674B99
:10332C001B6A664A23F0040313621CE07B68DB68AB
:10333C00052B0CD1614B1B6A604A43F004031362EA
:10334C005E4B1B6A5D4A43F0010313620BE05B4B5F
:10335C001B6A5A4A23F001031362584B1B6A574AE3
:10336C0023F0040313627B68DB68002B15D0FEF797
:10337C00CBFD38610AE0FEF7C7FD02463B69D31A64
:10338C0041F28832934201D90323B1E04B4B1B6AC3
:10339C0003F00203002BEED014E0FEF7B5FD38610C
:1033AC000AE0FEF7B1FD02463B69D31A41F28832BE
:1033BC00934201D903239BE0404B1B6A03F00203A9
:1033CC00002BEED1FB7D012B05D13C4BDB693B4A3D
:1033DC0023F08053D3617B68DB69002B00F087807E
:1033EC00364B5B6803F00C03082B61D07B68DB6900
:1033FC00022B46D1334B00221A60FEF785FD386153
:10340C0008E0FEF781FD02463B69D31A022B01D975
:10341C0003236DE0294B1B6803F00073002BF0D1E4
:10342C007B681B6AB3F5803F08D1244B5B6823F49F
:10343C0000327B689B68214913434B601F4B5B68D0
:10344C0023F474127B68196A7B685B6A0B431B4913
:10345C0013434B601B4B01221A60FEF755FD38617C
:10346C0008E0FEF751FD02463B69D31A022B01D945
:10347C0003233DE0114B1B6803F00073002BF0D0CD
:10348C0035E0104B00221A60FEF73EFD386108E073
:10349C00FEF73AFD02463B69D31A022B01D90323EE
:1034AC0026E0064B1B6803F00073002BF0D11EE0E6
:1034BC007B68DB69012B07D1012319E00010024066
:1034CC0000700040600042420B4B5B68FB60FB6885
:1034DC0003F480327B681B6A9A4206D1FB6803F4C2
:1034EC0070127B685B6A9A4201D0012300E00023D2
:1034FC0018461837BD4680BD0010024080B584B018
:10350C0000AF786039607B68002B01D10123D0E0DB
:10351C006A4B1B6803F007033A689A4210D9674B51
:10352C001B6823F0070265493B6813430B60634B30
:10353C001B6803F007033A689A4201D00123B8E0F4
:10354C007B681B6803F00203002B20D07B681B6890
:10355C0003F00403002B05D0594B5B68584A43F425
:10356C00E06353607B681B6803F00803002B05D0F5
:10357C00534B5B68524A43F460535360504B5B6847
:10358C0023F0F0027B689B684D4913434B607B68CA
:10359C001B6803F00103002B40D07B685B68012B98
:1035AC0007D1474B1B6803F40033002B15D10123C3
:1035BC007FE07B685B68022B07D1414B1B6803F0F3
:1035CC000073002B09D1012373E03D4B1B6803F002
:1035DC000203002B01D101236BE0394B5B6823F014
:1035EC0003027B685B68364913434B60FEF78CFC27
:1035FC00F8600AE0FEF788FC0246FB68D31A41F239
:10360C008832934201D9032353E02D4B5B6803F0BE
:10361C000C027B685B689B009A42EBD1274B1B68C2
:10362C0003F007033A689A4210D2244B1B6823F02C
:10363C00070222493B6813430B60204B1B6803F0C5
:10364C0007033A689A4201D0012332E07B681B6879
:10365C0003F00403002B08D0194B5B6823F4E062E1
:10366C007B68DB68164913434B607B681B6803F06F
:10367C000803002B09D0124B5B6823F460527B6863
:10368C001B69DB000E4913434B6000F021F8024626
:10369C000B4B5B681B0903F00F030A49CB5C22FA46
:1036AC0003F3094A1360094B1B681846FEF7EAFB43
:1036BC00002318461037BD4680BD00BF00200240D5
:1036CC00001002406C480008A0000020A40000205C
:1036DC0080B487B000AF0023FB600023BB600023E5
:1036EC007B6100237B6000233B611E4B5B68FB60AE
:1036FC00FB6803F00C03042B02D0082B03D027E04B
:10370C00194B3B6127E0FB689B0C03F00F03174A36
:10371C00D35C7B60FB6803F48033002B10D0114B1F
:10372C005B685B0C03F00103114AD35CBB607B68E4
:10373C000D4A03FB02F2BB68B2FBF3F37B6104E0BE
:10374C007B680C4A02FB03F37B617B693B6102E003
:10375C00054B3B6100BF3B6918461C37BD4680BC1E
:10376C00704700BF0010024000127A008448000825
:10377C009448000800093D0080B400AF024B1B6860
:10378C001846BD4680BC7047A000002080B500AF35
:10379C00FFF7F2FF0246054B5B681B0A03F00703B9
:1037AC000349CB5C22FA03F3184680BD001002409B
:1037BC007C48000880B485B000AF78600A4B1B6869
:1037CC000A4AA2FB03235B0A7A6802FB03F3FB6041
:1037DC0000BFFB685A1EFA60002BF9D100BF00BF76
:1037EC001437BD4680BC7047A0000020D34D62103A
:1037FC0038B5104B04461D682B6BB3B9182000F07C
:10380C004BFA0246286320B946210B4B0B4800F0BB
:10381C00DDF90B490B4BC0E900130B4B0021836006
:10382C000B2383810120C2E9040100222B6B1C6154
:10383C005A6138BDB800002096480008AD48000811
:10384C000E33CDAB34126DE6ECDE0500164B10B525
:10385C001C68236BB3B9182000F01EFA02462063D3
:10386C0020B95221114B124800F0B0F91149124BFA
:10387C00C0E90013114B002183600B2383810120CD
:10388C00C2E90401216B0E480B694C6958430D4A7F
:10389C0002FB0400A3FB0232013340EB0200C1E93E
:1038AC00043020F0004010BDB800002096480008FD
:1038BC00AD4800080E33CDAB34126DE6ECDE0500DE
:1038CC002DF451582D7F954C002310B50446C0E9BA
:1038DC000033C0E90433836081814366C281836114
:1038EC00194608225C3000F0F4F80D4B2462636238
:1038FC000C4BA3620C4BE3620C4B23630C4B9C42B2
:10390C0006D003F16802944202D0D0339C4205D118
:10391C0004F15800BDE8104000F054B910BD00BFD0
:10392C00593A00087B3A0008B33A0008D73A000825
:10393C0088050020024A0349034800F069B800BF1B
:10394C00AC000020113F0008BC00002041680C4B6B
:10395C0010B59942044601D000F0D4FAA168094B85
:10396C00994202D0204600F0CDFAE168064B99420C
:10397C0004D02046BDE8104000F0C4BA10BD00BF12
:10398C0088050020F00500205806002010B50B4BD0
:10399C000B4C0C4A20461A6004210022FFF794FFBE
:1039AC0004F1680001220921FFF78EFF04F1D00019
:1039BC000222BDE810401221FFF786BFC00600208E
:1039CC008805002041390008014800F0FCB800BF10
:1039DC00C9060020014800F0F7B800BFC906002056
:1039EC0010B50446FFF7F0FF236A1BB1BDE8104089
:1039FC00FFF7F0BF044B2362044B1B68002BF5D17F
:103A0C00FFF7C4FFF2E700BF59390008C0060020D9
:103A1C002DE9F8430746884614460026D4E901955B
:103A2C00B9F1010905D52468002CF7D13046BDE861
:103A3C00F883AB89012B07D9B5F90E30013303D0CC
:103A4C0029463846C04706436835E9E710B50C46A9
:103A5C00B1F90E1000F068F80028ABBF636DA389B4
:103A6C001B1823F48053ACBF6365A38110BD2DE9F3
:103A7C00F0411F468B890546DB050C46164605D5DD
:103A8C0002230022B1F90E1000F03CF8A389324653
:103A9C0023F48053A38128463B46B4F90E10BDE8AD
:103AAC00F04100F053B810B50C46B1F90E1000F00F
:103ABC0029F8431CA38915BF606523F4805343F494
:103ACC008053A38118BFA38110BDB1F90E1000F073
:103ADC0009B803460244934200D1704703F8011B16
:103AEC00F9E7000038B50023054D044608462B6065
:103AFC00FEF71FF9431C02D12B6803B1236038BDBC
:103B0C00C406002038B50446084611460022054D6F
:103B1C002A601A46FEF731F9431C02D12B6803B117
:103B2C00236038BDC406002038B50446084611464B
:103B3C000022054D2A601A46FEF7C2F8431C02D13A
:103B4C002B6803B1236038BDC406002038B5044689
:103B5C00084611460022054D2A601A46FEF7CDF89C
:103B6C00431C02D12B6803B1236038BDC40600206E
:103B7C00014B1868704700BFB800002070B50026D4
:103B8C000C4D0D4C641BA410A64209D100F046FE4E
:103B9C0000260A4D0A4C641BA410A64205D170BD28
:103BAC0055F8043B98470136EEE755F8043B984727
:103BBC000136F2E77449000874490008744900089A
:103BCC007849000870477047704700001FB51446CD
:103BDC001A46094B05461B68D86854B9074B1C4656
:103BEC00CDE9013400912B46054900F0B3F900F002
:103BFC00D3F9044BF4E700BFB8000020404900089B
:103C0C00124900080549000838B50546002940D07E
:103C1C0051F8043C0C1F002BB8BFE41800F0E6F878
:103C2C001C4A136833B9636014602846BDE83840F9
:103C3C0000F0E2B8A34208D9206821188B4201BFDA
:103C4C0019685B6809182160EDE71A465B680BB1CF
:103C5C00A342FAD911685018A0420BD12068014434
:103C6C00501883421160E0D118685B6808441060FA
:103C7C005360DAE702D90C232B60D6E720682118B1
:103C8C008B4201BF19685B6809182160636054603E
:103C9C00CBE738BDD0060020024B0146186800F077
:103CAC0025B800BFB800002070B50F4E0C46316827
:103CBC00054611B900F060F930602146284600F045
:103CCC005BF9431C03D14FF0FF34204670BDC41C7C
:103CDC0024F00304A042F8D0211A284600F04CF935
:103CEC000130F2D1EFE700BFCC0600202DE9F843FC
:103CFC00CD1C25F0030508350C2D38BF0C25002DE7
:103D0C00064601DBA94204D90C2333600020BDE830
:103D1C00F883DFF8D48000F069F8D8F800301C463E
:103D2C0044BB29463046FFF7BFFF431C044658D11D
:103D3C00D8F800402746002F43D1002C4BD02368E5
:103D4C003946304604EB030900F016F9814542D19F
:103D5C00216830466D1A2946FFF7A6FF01303AD08C
:103D6C0023682B442360D8F800305A6862BBC8F82B
:103D7C0000700FE02268521B20D40B2A17D961194E
:103D8C00A342256018BF5960636808BFC8F80010CB
:103D9C0062514B60304600F02FF804F10B00231DEC
:103DAC0020F00700C21A1CBF1B1AA350AFE76268B1
:103DBC00A3420CBFC8F800205A60EBE723466468A6
:103DCC00AEE73C467F68B6E71A465B68A342FBD178
:103DDC0000235360DEE70C233046336000F00CF810
:103DEC0094E70560D6E700BFD00600200148FFF736
:103DFC00EABE00BFC80600200148FFF7E5BE00BFC1
:103E0C00C8060020B1F90C20F8B5160705460C467B
:103E1C0054D44B68002B02DC0B6C002B48DDE66A9B
:103E2C00002E45D0002312F480522F68216A2B609B
:103E3C0030D0626DA389590705D56368D21A636BBC
:103E4C000BB1236CD21A00232846E66A216AB047CC
:103E5C00431CA38906D129681D292BD8284A0A415D
:103E6C00D60727D4002262602269D904226004D5C7
:103E7C00421C01D12B6803B96065616B2F60B9B12D
:103E8C0004F14403994202D02846FFF7BDFE0023FB
:103E9C0063630DE001232846B0470246501CC9D18C
:103EAC002B68002BC6D01D2B01D0162B1DD12F60DB
:103EBC00002021E043F040031BB21AE00F69002FF1
:103ECC00F6D0930718BF00230E6808BF4B69F61B8A
:103EDC000F608B60002EEBDD33463A462846216A94
:103EEC00D4F828C0E047002807DCB4F90C3043F0C4
:103EFC0040034FF0FF30A381F8BD0744361AE9E7C1
:103F0C00FEFFBFDF38B50B6905460C4613B900251B
:103F1C00284638BD18B1036A0BB9FFF761FDB4F937
:103F2C000C30002BF3D0626ED00704D4990502D468
:103F3C00A06DFFF748FE28462146FFF763FF636E2E
:103F4C000546DA07E4D4A3899B05E1D4A06DFFF7FD
:103F5C003BFEDDE70EB403B5014603AB054853F851
:103F6C00042B0068019300F045F802B05DF804EBF7
:103F7C0003B07047B800002038B50023054D044647
:103F8C0008462B60FDF706FF431C02D12B6803B1DA
:103F9C00236038BDC4060020062008B500F090FB55
:103FAC000120FDF782FE936810B4013B002B936057
:103FBC0007DA9469A34201DB0A2902D110BC00F094
:103FCC00C3BA1368581C10601970084610BC7047AF
:103FDC00F8B506460F461446D518AC4201D1002060
:103FEC0007E03A46304614F8011BFFF7DCFF431C90
:103FFC00F3D1F8BD2DE9F04F0D4614469846064610
:10400C009DB018B1036A0BB9FFF7EAFC6B6ED907C8
:10401C0005D4AB899A0502D4A86DFFF7D4FDAB8902
:10402C001B0701D52B699BB92946304600F0CAFA0B
:10403C0070B16B6EDC0704D54FF0FF301DB0BDE8DE
:10404C00F08FAB899805F7D4A86DFFF7BDFDF3E7AA
:10405C000023099320238DF8293030234FF00109D8
:10406C00CDF80C80DFF8A8818DF82A3023469A46CB
:10407C0013F8012B0AB1252AF9D1BAEB040B0BD09A
:10408C005B46224629463046FFF7A2FF013000F07E
:10409C00A780099A5A4409929AF80030002B00F034
:1040AC009F8000234FF0FF32CDE905230AF1010A6E
:1040BC00049307938DF853301A935446052214F841
:1040CC00011B534800F018FB049AD8B9D10644BF21
:1040DC0020238DF85330130744BF2B238DF8533016
:1040EC009AF800302A2B15D0544600204FF00A0CB9
:1040FC00079A214611F8013B303B092B4BD9B0B143
:10410C00079214E0A0EB080309FA03F31343A24649
:10411C000493D2E7039B191D1B680391002BBBBFB3
:10412C005B4242F0020207930793B8BF04922378D4
:10413C002E2B0AD163782A2B32D1039B02341A1D01
:10414C001B68039243EAE3730593DFF8C8A00322CC
:10415C005046217800F0D0FA38B14022049BA0EBF5
:10416C000A00824013430134049314F8011B062205
:10417C0029488DF8281000F0BFFA00283FD0274BB3
:10418C001BBB039B073323F0070308330393099BE3
:10419C003B4409936AE70C4601200CFB0232A8E76A
:1041AC0000234FF00A0C194601340593204610F8F1
:1041BC00012B303A092A03D9002BC6D00591C4E74C
:1041CC00044601230CFB0121F0E703AB00932A46C4
:1041DC003046134B04A9AFF300800746781CD6D1A8
:1041EC006B6ED90705D4AB899A0502D4A86DFFF77D
:1041FC00EBFCAB895B063FF51FAF09981EE703ABE1
:10420C0000932A463046064B04A900F07DF8E4E7FB
:10421C0041490008474900084B49000800000000CC
:10422C00DD3F00082DE9F047164698468A680B6971
:10423C0007469342B8BF1346336091F843200C46AF
:10424C00DDF820900AB1013333602368990642BF30
:10425C00336802333360256815F0060506D104F186
:10426C00190AE36832689B1AAB422BDC94F8433092
:10427C002268003B18BF0123920630D441463846D1
:10428C0004F14302C847013023D02368226903F0AC
:10429C000603042B14BF002533684FF0000608BF3B
:1042AC00E56804F11A0408BFED1A54F8123C08BF73
:1042BC0025EAE5759342C4BF9B1AED18B5421AD195
:1042CC00002008E00123524641463846C8470130D9
:1042DC0003D14FF0FF30BDE8F0870135C1E7302046
:1042EC00E11881F843005A1C94F84510224402331B
:1042FC0082F84310C2E70123224641463846C8479C
:10430C000130E6D00136D9E72DE9FF470F7E914603
:10431C00782F80460C469A460C9E01F1430207D832
:10432C00622F0AD8002F00F0D380582F00F0BA80EB
:10433C0004F1420684F842703AE0A7F16303152BAE
:10434C00F6D801A151F823F0AD430008C143000891
:10435C003D4300083D4300083D4300083D43000831
:10436C00C14300083D4300083D4300083D4300089D
:10437C003D430008C3440008EB4300087D4400089B
:10438C003D4300083D430008E54400083D43000858
:10439C00EB4300083D4300083D43000885440008FA
:1043AC0033681A1D1B68326004F1420684F84230EF
:1043BC0001239EE033682068191D3160060601D583
:1043CC001D6803E04506FBD5B3F90050002D03DA58
:1043DC002D236D4284F843300A23594811E021689B
:1043EC003368080653F8045B02D4490648BFADB2E3
:1043FC006F2F336014BF0A2308235148002184F81F
:10440C0043106668002EA8BF2168A660A4BF21F0E7
:10441C00040121600DB9002E4BD01646B5FBF3F10B
:10442C0003FB1157C75D06F8017D2F46BB420D46B5
:10443C00F4D9082B0BD12368DF0708D523696168F1
:10444C009942DEBF302306F8013C06F1FF36921B81
:10445C0022614B4621464046CDF800A003AAFFF747
:10446C00E1FE01304AD14FF0FF3004B0BDE8F087D7
:10447C00236843F0200323607827324884F8457082
:10448C00236831681F0651F8045B02D45F0648BFED
:10449C00ADB23160D90744BF43F0200323601DB196
:1044AC001023ABE72648E9E7236823F020032360B9
:1044BC00F6E71646BDE733682568181D616930605C
:1044CC002E061B6801D5196002E06806FBD5198021
:1044DC00002316462361BCE7336800211A1D3260A5
:1044EC001E686268304600F007F908B1801B6060F6
:1044FC0063682361002384F84330AAE732464946B7
:10450C0040462369D0470130ADD023689B0713D4B4
:10451C00E068039B9842B8BF1846A6E701233246D1
:10452C0049464046D04701309DD00135E368039998
:10453C005B1AAB42F2DCEBE7002504F11906F5E758
:10454C005249000863490008F8B50E461446054662
:10455C0018B1036A0BB9FFF743FAA369A360A389E7
:10456C001A0701D5236943B92146284600F02AF8D9
:10457C0018B14FF0FF373846F8BD23682269F6B200
:10458C00981A63693746834205DC21462846FFF7B3
:10459C00B9FC0028EDD1A368013BA36023685A1C29
:1045AC0022601E706269431C9A4204D0A389DB0707
:1045BC00E1D50A2EDFD121462846FFF7A3FC0028BF
:1045CC00D9D0D6E738B5294B054618680C4618B132
:1045DC00036A0BB9FFF704FAB4F90C30190722D4AB
:1045EC00DA0607D409222A6043F040034FF0FF306B
:1045FC00A38133E0580712D5616B41B104F1440338
:10460C00994202D02846FFF7FFFA00236363A3897F
:10461C0023F02403A3810023636023692360A3890F
:10462C0043F00803A38123694BB9A38903F42073D6
:10463C00B3F5007F03D02146284600F090F8B4F97A
:10464C000C3013F001020AD00022A26062695242BF
:10465C00A261226942B913F08000C5D138BD990717
:10466C0058BF6269A260F4E70020F7E7B8000020A9
:10467C001F2938B505460C4604D9162303604FF0A4
:10468C00FF3038BDC26B12B152F821304BB92846FD
:10469C0000F030F8224601462846BDE8384000F0CC
:1046AC0017B8012B0AD0591C03D116230360012023
:1046BC00E7E70021204642F8241098470020E0E765
:1046CC00024B01461868FFF7D3BF00BFB8000020AB
:1046DC0038B50023064D0446084611462B60FDF7FD
:1046EC00D4FA431C02D12B6803B1236038BD00BF40
:1046FC00C4060020FDF7C2BA034610B5C9B2024485
:10470C009342184601D1002003E0047801338C4217
:10471C00F6D110BD70B50C46B1F90E101546002936
:10472C001E4696B00CDAA389002113F0800F14BF3B
:10473C0040234FF48063002031602B6016B070BDB5
:10474C006A4600F049F80028EDDB019901F470414C
:10475C00A1F50053594259414FF48063EBE78B8923
:10476C00F7B59D0706460C4607D504F147032360B1
:10477C0023610123636103B0F0BD6A4601ABFFF70F
:10478C00C9FF009F054639463046FFF7AFFA48B9D6
:10479C00B4F90C309A05EED423F0030343F0020372
:1047AC00A381E2E7A389C4E9040743F08003A38152
:1047BC00019B20605BB13046B4F90E1000F01EF87E
:1047CC0028B1A38923F0030343F00103A381A38938
:1047DC001D43A581CFE7000038B50023064D0446E4
:1047EC00084611462B60FDF7AFFA431C02D12B682B
:1047FC0003B1236038BD00BFC406002038B50023C8
:10480C00054D044608462B60FDF7ADFA431C02D15A
:10481C002B6803B1236038BDC4060020F8B500BF77
:10482C00F8BC08BC9E467047F8B500BFF8BC08BC85
:04483C009E467047DD
:10484000070A0D101316191C1F2225282B2E313490
:10485000373A3D404346490004070A0D1013161924
:104860001C1F2225282B2E313437000000000000A9
:104870000000000001020304060708090000000010
:104880000102030402030405060708090A0B0C0DC4
:104890000E0F101001025245454E54206D616C6C94
:1048A0006F6320737563636565646564002F62756B
:1048B000696C642F676E752D746F6F6C732D666FE6
:1048C000722D73746D33325F31322E332E72656CFC
:1048D000312E32303234303330362D313733302FC1
:1048E0007372632F6E65776C69622F6E65776C6982
:1048F000622F6C6962632F7374646C69622F7261DA
:104900006E642E63002C2066756E6374696F6E3A58
:104910002000617373657274696F6E2022257322A3
:10492000206661696C65643A2066696C65202225A1
:1049300073222C206C696E65202564257325730A0B
:1049400000232D302B2000686C4C006566674546BF
:1049500047003031323334353637383941424344F9
:104960004546003031323334353637383961626389
:044970006465660014
:044974003101000805
:044978000D01000825
:10497C00010101010001010001010001010101001F
:10498C000001000101000001000001000101010013
:10499C000101010000010101010100000101010000
:1049AC0001000101000101010100000100000100F2
:1049BC0001010100000101010100000101010100E0
:1049CC0001010101000001010100000101010100D0
:1049DC0001010101000001010101000101010100BF
:1049EC0001010100000100000100000100000100B4
:1049FC00010101010001010101010001010101009E
:104A0C00010101010001010101000001010101008E
:104A1C000024F40010000000010000000000000061
:104A2C000300000088050020BC00002000000000EE
:104A3C0088050020F005002058060020000000002A
:104A4C00000000000000000000000000000000005A
:104A5C00000000000000000000000000000000004A
:104A6C00000000000000000000000000000000003A
:084A7C00000000000000000032
:0400000508001E19B8
:00000001FF
